:020000040800F2
:1000000000400020B1AA0008858700088F870008FB
:1000100000000000000000000000000000000000E0
:1000200000000000000000000000000075680008EB
:10003000000000000000000091690008D969000874
:1000400001AB000801AB000801AB000801AB0008E0
:1000500001AB000801AB000801AB000801AB0008D0
:1000600001AB000801AB000801AB000801AB0008C0
:1000700001AB00089587000801AB000801AB000840
:1000800001AB000801AB000801AB000801AB0008A0
:1000900001AB000801AB000801AB000801AB000890
:1000A00001AB000801AB000801AB000801AB000880
:1000B00001AB000801AB000801AB0008AD870008E8
:1000C00010B5064C2378002B07D1054B002B02D02E
:1000D000044800E000BF0123237010BDF802002097
:1000E0000000000034AC0008044B10B5002B03D016
:1000F0000349044800E000BF10BDC04600000000F6
:10010000FC02002034AC000802780B78002A03D0EF
:10011000013001319A42F7D0D01A70470023C25CF7
:100120000133002AFBD1581E70470000002243080B
:100130008B4274D303098B425FD3030A8B4244D3AF
:10014000030B8B4228D3030C8B420DD3FF220902F1
:1001500012BA030C8B4202D31212090265D0030BB0
:100160008B4219D300E0090AC30B8B4201D3CB03A6
:10017000C01A5241830B8B4201D38B03C01A5241E8
:10018000430B8B4201D34B03C01A5241030B8B42EA
:1001900001D30B03C01A5241C30A8B4201D3CB02D5
:1001A000C01A5241830A8B4201D38B02C01A5241BA
:1001B000430A8B4201D34B02C01A5241030A8B42BD
:1001C00001D30B02C01A5241CDD2C3098B4201D3D5
:1001D000CB01C01A524183098B4201D38B01C01A53
:1001E000524143098B4201D34B01C01A52410309CA
:1001F0008B4201D30B01C01A5241C3088B4201D379
:10020000CB00C01A524183088B4201D38B00C01A25
:10021000524143088B4201D34B00C01A5241411A4C
:1002200000D20146524110467047FFE701B5002059
:1002300000F0F0F802BDC0460029F7D076E770471D
:1002400003460B437FD4002243088B4274D3030937
:100250008B425FD3030A8B4244D3030B8B4228D3D8
:10026000030C8B420DD3FF22090212BA030C8B42FE
:1002700002D31212090265D0030B8B4219D300E09E
:10028000090AC30B8B4201D3CB03C01A5241830B23
:100290008B4201D38B03C01A5241430B8B4201D3D3
:1002A0004B03C01A5241030B8B4201D30B03C01AFC
:1002B0005241C30A8B4201D3CB02C01A5241830A76
:1002C0008B4201D38B02C01A5241430A8B4201D3A5
:1002D0004B02C01A5241030A8B4201D30B02C01ACF
:1002E0005241CDD2C3098B4201D3CB01C01A524136
:1002F00083098B4201D38B01C01A524143098B42BF
:1003000001D34B01C01A524103098B4201D30B01A7
:10031000C01A5241C3088B4201D3CB00C01A5241CC
:1003200083088B4201D38B00C01A524143088B4291
:1003300001D34B00C01A5241411A00D2014652412A
:10034000104670475DE0CA0F00D04942031000D349
:100350004042534000229C4603098B422DD3030A9E
:100360008B4212D3FC22890112BA030A8B420CD3AE
:10037000890192118B4208D3890192118B4204D3D7
:1003800089013AD0921100E08909C3098B4201D357
:10039000CB01C01A524183098B4201D38B01C01A91
:1003A000524143098B4201D34B01C01A5241030908
:1003B0008B4201D30B01C01A5241C3088B4201D3B7
:1003C000CB00C01A524183088B4201D38B00C01A64
:1003D0005241D9D243088B4201D34B00C01A52413B
:1003E000411A00D20146634652415B10104601D3C8
:1003F0004042002B00D54942704763465B1000D352
:10040000404201B5002000F005F802BD0029F8D0F7
:1004100016E770477047C04603685A0003D45B0074
:100420005B08C0187047802212061343F9E7C046E4
:10043000F0B557464E46DE464546E0B5814683B0A8
:100440009246002925D04B1E9B46002701935B4610
:10045000FB18DC0FE4184B466410E5005E19300011
:10046000FFF7DAFF019B8046A3420BD0280008303B
:100470004844FFF7D1FFD04506D80138504509D28E
:10048000671CE4E7504505D9A74202D0631E9B468E
:10049000DDE70026300003B03CBC90469946A246FA
:1004A000AB46F0BD012809D0022805D0002801D0B4
:1004B000002070470248FCE70248FAE70248F8E7E4
:1004C000C50B0008DD0B0008D10B000830B5234B2D
:1004D00083B005008C1E002B2AD001A9200000E06B
:1004E00000BF002820D001992200FFF7A1FF041EC1
:1004F0001AD0FFF791FF6368A864012B10D0201D6C
:10050000002B1BDBFFF788FF0023E8642B650368E3
:10051000002B17DBFFF780FF2861002003B030BD00
:10052000002305202B61F9E7002309202B61F5E763
:100530000B480C49091AC9100191D5E70123E86459
:100540002B65E4E71801000FFFF7ACFF28610028D6
:1005500001D10930E2E70020E0E7C04600000000DA
:10056000ACB0000814B20008036810B50400DA0744
:1005700005D49B070FD5483000F084FC23685A0748
:100580000FD51A0714D5DB0604D42000D130FF3074
:1005900000F084FC10BD483000F070FC23685A075E
:1005A000EFD42000D03000F071FC23681A07EAD4A1
:1005B00020005130FF3000F06DFC2368E3E7C046B7
:1005C0000368002B00D01B181800704709207047E3
:1005D0007047C04670B504000D0008E02B6C2A007F
:1005E00063612100012023699847082807D1296CFD
:1005F0002000FFF76BFF0028F0D00AF0B8FA0728B8
:10060000FBD10020296CFFF7E3FF281D00F020FC40
:10061000F0B5CE46474680B5C368324C9846A544EF
:100620008369060014000431402205A899460AF0A7
:100630008DFA002304AD296C30000493FFF746FFC8
:10064000631E9C4107000934002F15D0AB6B1021AD
:100650006B644B4621430193C9B2009533003200CD
:100660000120C047002833D13800F5239B009D446A
:100670000CBC90469946F0BDF0222B6C5200736181
:1006800029007CA80AF062FA7CAA310033692000B4
:1006900098478A9B07006B6403934B460095019330
:1006A0003200330021000120C047002810D1F02281
:1006B0007CA9520028000AF049FA082F06D1296CBB
:1006C0003000FFF703FF09240700BDE7072F01D023
:1006D0000927C9E70020296CFFF77AFF05A800F079
:1006E000B7FBC0462CFCFFFF406C704770B5CB6B6E
:1006F000FAB00B6404000E004022043103A80AF093
:1007000025FA01235B42029306E002AA2100236935
:100710009847050008280AD1129B20001900019370
:10072000FFF7D4FE0028F0D009207AB070BD02A8EF
:10073000FFF71AFF062DF7D131002000FFF74AFF1F
:1007400010B58261DA6BC1601A6419000022FFF7EC
:100750005FFF10BD436970B50B64C36804000D00F2
:10076000002B04D00122FFF753FF0AF000FA0A0021
:100770002369010002209847072807D0082803D1E1
:1007800029002000FFF726FF0AF0F1F90020296C6C
:10079000FFF71EFF281D00F05BFBC046C36810B5C5
:1007A000002B05D0CB6B00220B64FFF731FF10BD8F
:1007B000FFF79CFFFBE7C0467047C046836810B553
:1007C000002B02D001000120984710BD10B501296F
:1007D00007D0002907D003390224012901D92000BC
:1007E00010BD0124FBE70224002BF8D10F2AF6D814
:1007F000920082185268029B00241A60EFE7C046FC
:1008000000B585B003AB0A00009300210023FFF779
:10081000DDFF039805B000BD10B5012907D0002900
:1008200007D003390224012901D9200010BD012479
:10083000FBE70224002BF8D10F2AF6D8029B920086
:100840001B68821853600024EFE7C04600B585B0EE
:1008500003AB039200930A0000230021FFF7DCFFA3
:1008600005B000BD70B51A4CD36BA54413640600E7
:100870000D0019A8111D40220AF068F901235B42FE
:10088000189314E00C2118A802AAFFF7DFFF290033
:1008900018A8B047002812D1069B18AA02A9083050
:1008A00001939847040005280AD0092807D0289BFF
:1008B00002A819000193FFF709FE0028E2D00924DD
:1008C00018A8FFF751FE200090239B009D4470BDA7
:1008D000C0FDFFFFF0B5DE464E46454657469346FF
:1008E0000322E0B51E0013008BB003400193CB6CD4
:1008F0000D001C1D1B6808940793002E66D11B0277
:10090000079306AB5E731A73019B022B00D16EE056
:100910002B6DDB0747D40023A846B2460293083369
:10092000034003932568002D00D137E15346022B85
:1009300049D02588668804340123370099469F43AF
:1009400043469B6C0F219C4658466744FFF758FF6F
:100950000022874206D82A004B469A43D719B8424C
:100960008041424202230121760033400D402B4357
:10097000012B3ED0002B5AD0022B1CD123680199A9
:100980005F007F08002965D1002A06D0039A002A5B
:1009900000D188E0002F00D1AAE0002B65DB0137F1
:1009A000BF00E419BEE700230293022E47DDFFF7E4
:1009B0000DFE002849D009200BB03CBC904699465A
:1009C000A246AB46F0BD66680834B5E7022E9BDC54
:1009D0001A0C1B040793022306A90B73FD33134063
:1009E0009B00E418019B4A73022B00D090E7AC6B8C
:1009F0008EE7019B002B3AD1002A16D02368DD0F29
:100A000063689A1CD7D0424658320692013300D10F
:100A1000C6E0201DFFF7D4FD06AB01002A004046CA
:100A200000E000BF002800D0A7E008347AE7019B6F
:100A3000002B02D0002A00D08BE0043472E707A913
:100A4000584600F0D1FA0028B5D1029B002B5DD1A9
:100A50000820B1E743460D2158461D6AFFF7D0FE36
:100A6000854263D02368002B99DA043497E7434624
:100A70000D2158461D6AFFF7C3FE8542D5D1434676
:100A80009B6A9C42D1D145462000FFF7C5FC0F214F
:100A900002005846FFF7DAFE58462A000021FFF709
:100AA000D5FE072088E7002F22D058235146434423
:100AB00006AABA46251D0026049405911F009146FA
:100AC00003E004352600A24514D028000697FFF75E
:100AD00077FD4B46010000224046741C00E000BF39
:100AE0000028EED05746059B049C9A46B742B9D1E0
:100AF000454601E04546049C0D215846FFF780FE1F
:100B0000069B28626B62AC62062055E70F215846AF
:100B1000FFF776FE0E2102005846FFF797FE584673
:100B2000274A0F21FFF792FE072045E743469B6ABD
:100B30009C4297D1434642469F620023D3620433CE
:100B40001363231D53632368002B32DB01230293BD
:100B500025E72000FFF760FC454604340600AC633F
:100B6000404600E000BF002800D124E7584632008C
:100B70000F21FFF76BFE07201EE707000D215846E7
:100B80004546FFF73DFE2862022F0FD1069BEB6220
:100B900043462C336B62AC6206200DE7564604E7F1
:100BA0000D2158464546FFF72BFE2862069B6B62D7
:100BB000F1E73800013080004546201865E7C0465F
:100BC0000000000010B50023FFF784FE10BDC046F2
:100BD00010B50123FFF77EFE10BDC04610B50223FD
:100BE000FFF778FE10BDC046F0B5CE46474680B54B
:100BF0000600C3B014001D0001294ED0002933D0D7
:100C000003290AD0042902D1002B00D189E0022057
:100C100043B00CBC90469946F0BD032BF7D11404A9
:100C2000150C240C2B19102BF1D8082203681A423A
:100C300000D0E7E020AB1800984600F02DF9B36B28
:100C4000ED001A00002C09D0E400EA1A1C194244F5
:100C50001968D15004339C42FAD12200B263404655
:100C600000F018F90020D3E70220002BD0D1002398
:100C700001271004B56B000C321D39009940084261
:100C800002D029680435116001330432102BF4D1ED
:100C90000020A304BCD4B563BAE71404170C240CD9
:100CA000012B5FD0052BB2D13B19202BAFD80F2FD2
:100CB0007DD9A146002C65D1002223009146B16B5D
:100CC000002B00DC88E020A88046FA00DB00521AE6
:100CD000CB1842440868505004318B42FAD11900B5
:100CE0004B46002B10D04B4658003A00102F00D234
:100CF00010220023103AD2006A448000CC58D4500D
:100D000004338342FAD1C918012D5ED0B1630F2F8D
:100D100074D94B46002BA5D0684600F0B7F80020E8
:100D200076E7102A00D972E7102203681A4245D1EB
:100D300020AB1800984600F0B3F800230120B16BF7
:100D400002009A40144204D045460F689A00AF5002
:100D500004310133042BF3D14046B16300F09EF817
:100D6000002055E73B19102B00D950E70F2F00D971
:100D70004DE700239946012233681A4230D14B4691
:100D8000002B5AD0042233681A4242D1012D47D099
:100D90000F2F06D820AB180000F076F84B46002B3A
:100DA0008AD0684600F074F81023DB1B87E7102B0D
:100DB000DFD91022524291469944DCE79343036005
:100DC000D130FF3000F06CF8B2E7043120A8B163F5
:100DD00000F054F800201BE74B46002B84D193E72A
:100DE000190091430A003160052D1ED00322300006
:100DF00093433360483000F043F8C0E720A800F088
:100E000041F886E7934303605130FF3000F044F827
:100E100010E7300093433360D03000F039F8B5E785
:100E200020AB180000F02CF8BEE7022330001A4374
:100E30003260483000F028F8A1E7012D03D00F2FD1
:100E400000D939E7A6E720AB180000F019F833E71E
:100E5000011C343138C9043B9C461D60A646011C68
:100E600020313CC990469946A246AB46011C083148
:100E7000FCC941680068E54600BDC0467047C046F1
:100E80007047C0467047C0467047C0467047C0466E
:100E90007047C0467047C0467047C0467047C0465E
:100EA0007047C04601B401A801B585B0FFB408A8D9
:100EB00041464A4653465C4665463EC001A83EC888
:100EC0000F98009000230CB401A9FFF70FFC109BB2
:100ED00012B0184701B401A801B585B0FFB408A845
:100EE00041464A4653465C4665463EC001A83EC858
:100EF0000F98009000230CB401A9FFF72BFC109B66
:100F000012B0184701B401A801B585B0FFB408A814
:100F100041464A4653465C4665463EC001A83EC827
:100F20000F98009000230CB401A9FFF737FC109B29
:100F300012B0184701B401A801B585B0FFB408A8E4
:100F400041464A4653465C4665463EC001A83EC8F7
:100F50000F98009000230CB401ABFFF7F1FB109B3E
:100F600012B0184701B401A801B585B0FFB408A8B4
:100F700041464A4653465C4665463EC001A83EC8C7
:100F80000F98009000230CB401AAFFF76BFC109B94
:100F900012B01847027A0300002A04D1427AB02026
:100FA000002A07D17047013A02720268100E12023D
:100FB0001A60F7E7013A5A725A68111D5960032105
:100FC00012681972F2E7C04600B585B003AB009312
:100FD0000C2200230021FFF7F9FB039805B000BDA8
:100FE00010B5FFF7F1FF10BDF0B557464E46454628
:100FF000DE460023E0B587B003930F339846083BE5
:10100000994680231B0306000F009A463800FFF71D
:10101000C1FF0400B02821D0030632D4FF2583008D
:101020001D4005AB9B4600930D220023002130009C
:101030000435FFF7CBFB63064CD5059B5D1B05957F
:101040005B46009300230D2200213000FFF7E4FBF4
:101050003800FFF79FFF0400B028DDD1039B002478
:10106000002B2FD105AD00950E2200213000FFF797
:10107000ADFB009500230F2200213000FFF7CCFBD1
:1010800020E0030042469343DBB2802B63D0902BD9
:1010900025D0A02B32D0B02B45D0C02B00D173E08F
:1010A00003004A469343DBB2D02B0AD15346024099
:1010B00001321A43052301213000FFF795FD002876
:1010C000A4D00924200007B03CBC90469946A24613
:1010D000AB46F0BD059B9C4665440595B0E7833B58
:1010E00003400D2BEDD0424605AD02400095002394
:1010F00000213000FFF76AFB0095A3E7FF234A4673
:101100001B011900824311410A001A40030702D54E
:101110008023DB011A43002300213000FFF764FD28
:101120000028CED172E7B1284AD0B2285ED0B328C9
:1011300000D18BE0FC230340B42BC2D04A46534677
:10114000024001321A43012101233000FFF74CFD18
:101150000028B6D15AE704023800FFF71BFF8025AC
:1011600020432D02A842ACD004010005020C00234C
:1011700000213000FFF738FD0028A2D12C4200D119
:1011800044E70123039341E7C6286AD0C7287CD0EF
:1011900003004A469343DBB2C02B00D18BE0C82842
:1011A00000D18FE0C92800D08BE73800FFF7F2FEAE
:1011B000F02302031B03134042460240013278E74A
:1011C0003800FFF7E7FE002800D17AE70300424627
:1011D0009343DBB2002B00D073E702000021300004
:1011E000FFF702FD002800D06BE70FE705AB009387
:1011F0009B460D22002300213000FFF7E7FA38005C
:10120000FFF7C8FE03066AD57F25B03C059B284042
:10121000A0409C466044059038000734FFF7BAFEB2
:101220000306F3D4812292009446863AFF3A104096
:10123000A040059B723A634418185B4605900093E2
:10124000002100233000FFF7E7FADFE63800FFF760
:10125000A1FEF02302031B03134042460240013269
:1012600070E73800FFF796FEF02302031B031340DC
:101270004246024001321A43032303213000FFF7A4
:10128000B3FC002800D01CE7C0E63800FFF782FE60
:10129000002800D115E7030042469343DBB2002B40
:1012A00000D00EE7020004213000FFF79DFC00286B
:1012B00000D006E7AAE64346A0221C4001341203F0
:1012C0002243D9E73800FFF765FE434602009A4300
:1012D000D2B210321840120301300243EAE602246F
:1012E000A0E7C046030000B5DB6C85B05A68080073
:1012F000120201921A0001A908324A6003220A72FE
:10130000DB794B72FFF770FE05B000BD10B5FFF73B
:1013100067FE806C10BDC04610B5FFF761FEC26C61
:10132000D3799B000833D01810BDC04610B509F022
:101330001EFCC04610B5FFF7F9FFC04680B500AFF0
:10134000074B074A126810210A431A60002007F071
:10135000BBF907F03BF900231800BD4680BDC0462D
:101360000020024080B500AF034B1B685A1C024BA3
:101370001A60C046BD4680BDCC12002080B500AFCB
:10138000024B1B681800BD4680BDC046CC12002031
:1013900080B584B000AF78600023FB600023BB60A1
:1013A0007B68002B01D1012311E17B683D229B5C0E
:1013B000DBB2002B07D17B683C22002199547B686B
:1013C000180007F02DF97B683D22022199547B68B3
:1013D0001B687A681268126802218A431A607B6867
:1013E0001B687A681268126801210A431A60FFF7C5
:1013F000C5FF0300BB6010E0FFF7C0FF0200BB6841
:10140000D31A0A2B09D97B683D22032199547B68A2
:101410003C22002199540323D9E07B681B685B6858
:1014200001221340E8D07B681B685B6801221340EF
:1014300000D1BBE07B689B69012B08D17B681B68EE
:101440007A681268126880210A431A6007E07B6894
:101450001B687A681268126880218A431A607B6868
:10146000DB69012B08D17B681B687A6812681268F7
:1014700040210A431A6007E07B681B687A6812689B
:10148000126840218A431A607B681B6A012B08D1CD
:101490007B681B687A681268126820210A431A6008
:1014A00007E07B681B687A681268126820218A430B
:1014B0001A607B685B6A012B08D17B681B687A68BD
:1014C0001268126810210A431A6007E07B681B68E3
:1014D0007A681268126810218A431A607B689B6AD6
:1014E000012B08D17B681B687A6812681268082192
:1014F0000A431A6007E07B681B687A681268126802
:1015000008218A431A607B68DB6A012B08D17B685B
:101510001B687A681268126804210A431A6007E09F
:101520007B681B687A681268126804218A431A6013
:101530007B681B687A6891687A68D26811437A6818
:10154000126911437A68526911437A685268013A04
:101550000A43DA617B681B687A68126812680121A5
:101560008A431A60FFF70AFF0300BB6010E0FFF731
:1015700005FF0200BB68D31A0A2B09D97B683D22FC
:10158000032199547B683C220021995403231EE0D7
:101590007B681B685B6801221340E8D17B681B688D
:1015A0005B680122134001D10123FB60FB68012B22
:1015B00008D17B6800221A647B683D22012199547E
:1015C000002304E07B683D22042199540123180084
:1015D000BD4604B080BD000080B582B000AF0200FF
:1015E000FB1D1A70064BFA1D127811001F220A40CB
:1015F000012191400A001A60C046BD4602B080BD7C
:1016000000E100E0B0B582B000AF02003960FB1D20
:101610001A70FB1D1B787F2B32D92F4CFB1D1B78BA
:101620001A000F231340083B99082B4AFB1D1B7817
:1016300018000F230340083B9B0806339B00D31878
:1016400004331B68FA1D1278100003220240D200F6
:10165000FF2090400200D2431A403B689B01FF20CC
:101660001840FB1D1B781D0003232B40DB00984016
:1016700003001A438B1D9B00E31804331A6027E014
:10168000164CFB1D1B785BB29B081449FA1D12789F
:1016900052B29208C03292005258F91D09780800DF
:1016A00003210140C900FF2088400100C9431140C7
:1016B0003A689201FF201040FA1D127815000322AB
:1016C0002A40D200904002000A43C0339B001A51C6
:1016D000C046BD4602B0B0BD00ED00E000E100E054
:1016E00080B584B000AFB9607A600F23FB18021C8C
:1016F0001A70BA680F23FB181B785BB21100180030
:10170000FFF780FFC046BD4604B080BD80B582B003
:1017100000AF0200FB1D1A70FB1D1B785BB21800A6
:10172000FFF75AFFC046BD4602B080BD80B586B007
:1017300000AF7860396000237B610023FB600023E9
:101740003B6155E13B681B6801217A6991400A00C1
:101750001340FB60FB68002B00D146E13B685B68EF
:10176000022B03D03B685B68122B23D17B69DA081C
:101770007B6808329200D3583B617B690722134093
:101780009B000F229A401300DA433B6913403B61F0
:101790003B681A697B6907210B409B009A40130044
:1017A0003A6913433B617B69DA087B68083292002F
:1017B0003969D1507B681B683B617B695B00032200
:1017C0009A401300DA433B6913403B613B685B6816
:1017D00003221A407B695B009A4013003A69134365
:1017E0003B617B683A691A603B685B68012B0BD0F0
:1017F0003B685B68022B07D03B685B68112B03D00A
:101800003B685B68122B30D17B689B683B617B69CE
:101810005B0003229A401300DA433B6913403B61AB
:101820003B68DA687B695B009A4013003A691343AE
:101830003B617B683A699A607B685B683B61012227
:101840007B699A401300DA433B6913403B613B6874
:101850005B681B0901221A407B699A4013003A69B0
:1018600013433B617B683A695A607B68DB683B6184
:101870007B695B0003229A401300DA433B69134003
:101880003B613B689A687B695B009A4013003A6948
:1018900013433B617B683A69DA603B685A6880238E
:1018A0005B05134000D1A0E0574B574A92690121D4
:1018B0000A439A61544B9B6901221340BB60BB6889
:1018C000524A7B699B0802339B009B583B617B69B2
:1018D000032213409B000F229A401300DA433B6916
:1018E00013403B617A689023DB059A4219D07B68EC
:1018F000474A934213D07B68464A93420DD07B6897
:10190000454A934207D07B68444A934201D104235D
:1019100008E0052306E0032304E0022302E001239C
:1019200000E000237A6903210A40920093403A695B
:1019300013433B6135497B699B0802339B003A693D
:101940005A50374B1B683B61FB68DA433B691340D5
:101950003B613B685A6880235B02134003D03A69BD
:10196000FB6813433B612E4B3A691A602C4B5B6852
:101970003B61FB68DA433B6913403B613B685A6853
:1019800080239B02134003D03A69FB6813433B61F9
:10199000234B3A695A60224B9B683B61FB68DA43F0
:1019A0003B6913403B613B685A6880235B031340EB
:1019B00003D03A69FB6813433B61194B3A699A605B
:1019C000174BDB683B61FB68DA433B6913403B61C3
:1019D0003B685A6880239B03134003D03A69FB6835
:1019E00013433B610E4B3A69DA607B6901337B61DB
:1019F0003B681A687B69DA40131E00D0A2E6C04635
:101A0000BD4606B080BDC046001002400000014047
:101A10000004004800080048000C0048001000487E
:101A20000004014080B586B000AF786039600023C3
:101A30007B6100233B610023FB60B9E001227B69ED
:101A40009A4013003A6813403B613B69002B00D178
:101A5000ABE07B681B687A695200032191400A0061
:101A6000D2431A407B681A607B69DA087B69D9081F
:101A70007B6808318900CB587969072001408900CB
:101A80000F2088400100C94319407B68083292004A
:101A9000D1507B689B687A695200032191400A000B
:101AA000D2431A407B689A607B685B6801217A693F
:101AB00091400A00D2431A407B685A607B68DB6819
:101AC0007A695200032191400A00D2431A407B6890
:101AD000DA603C4A7B699B0802339B009B58FB60A1
:101AE0007B69032213409B000F229A40FB6813403E
:101AF000FB607A689023DB059A4219D07B68324AF2
:101B0000934213D07B68314A93420DD07B68304AB0
:101B1000934207D07B682F4A934201D1042308E007
:101B2000052306E0032304E0022302E0012300E092
:101B300000237A6903210A40920093401A00FB684F
:101B40009A4232D17B69032213409B000F229A40B4
:101B50001300FB601B487B699B081A497A6992084D
:101B6000023292005258F968C9430A4002339B007E
:101B70001A50194B184A12683969C9430A401A6049
:101B8000154B154A52683969C9430A405A60124BCD
:101B9000114A92683969C9430A409A600E4B0E4A4D
:101BA000D2683969C9430A40DA607B6901337B61D5
:101BB0003A687B69DA40131E00D03FE7C046BD4655
:101BC00006B080BD00000140000400480008004845
:101BD000000C0048001000480004014080B584B0AB
:101BE00000AF78600A00BB1C1A807B681B69BA1CB6
:101BF0001288134004D00F23FB1801221A7003E04F
:101C00000F23FB1800221A700F23FB181B781800F3
:101C1000BD4604B080BD80B582B000AF78600800DA
:101C20001100BB1C021C1A807B1C0A1C1A707B1C36
:101C30001B78002B04D0BB1C1A887B689A6103E0D8
:101C4000BB1C1A887B689A62C046BD4602B080BD44
:101C500090B585B000AF78600023FB600023BB60C7
:101C60007B68002B01D10123DEE07A68EA23FF3391
:101C7000D35CDBB2002B08D17A68F4235B0000212F
:101C8000D1547B68180008F023FA7A68EA23FF33FE
:101C90000321D1540023FB6043E07968FA682920CE
:101CA0001300DB009B1A9B00CB181B1801221A7033
:101CB000FB68DCB27968FA6828201300DB009B1A05
:101CC0009B00CB181B18221C1A707968FA682B200D
:101CD0001300DB009B1A9B00CB181B1800221A7004
:101CE0007968FA681300DB009B1A9B00CB18343329
:101CF00000221A607968FA681300DB009B1A9B00C7
:101D0000CB18383300221A607968FA681300DB00B8
:101D10009B1A9B00CB183C3300221A60FB680133EE
:101D2000FB607B685A68FB689A42B6D80023FB6068
:101D30004EE07868FA680A23FF3319001300DB00CD
:101D40009B1A9B00C3185B1800221A70FB68DCB258
:101D50007868FA68842359001300DB009B1A9B0003
:101D6000C3185B18221C1A707868FA680C23FF33BA
:101D700019001300DB009B1A9B00C3185B1800229C
:101D80001A707868FA688A2359001300DB009B1ADE
:101D90009B00C3185B1800221A607868FA688C23CD
:101DA00059001300DB009B1A9B00C3185B1800222C
:101DB0001A607868FA688E2359001300DB009B1ABA
:101DC0009B00C3185B1800221A60FB680133FB609C
:101DD0007B685A68FB689A42ABD87B681B684022D4
:101DE000012199527B681B684022002199527B682F
:101DF0001B684422002199527B681B6850220021F5
:101E00009952BF231B02BB607B681B68BA6891B202
:101E1000402299527B682422002199547A68EA234F
:101E2000FF330121D15400231800BD4605B090BDF9
:101E300080B582B000AF78607B681A687B681B68E9
:101E400058215B5A9BB205490B4399B25823D15292
:101E500000231800BD4602B080BDC0460080FFFFD1
:101E600080B584B000AF78600023FB607B681B689E
:101E700044229B5A9BB21A0080231B021A408023E3
:101E80001B029A4203D17B68180001F019FC7B68A1
:101E90001B6844229B5A9BB21A008023DB001A4025
:101EA0008023DB009A4214D17B681A687B681B6828
:101EB00044215B5A9BB277490B4099B24423D152DB
:101EC0007B68180008F08DF97B680021180000F08D
:101ED000EFF87B681B6844229B5A9BB21A00802350
:101EE000DB011A408023DB019A420BD17B681A6820
:101EF0007B681B6844215B5A9BB267490B4099B2CF
:101F00004423D1527B681B6844229B5A9BB21A001F
:101F100080239B011A4080239B019A420BD17B684E
:101F20001A687B681B6844215B5A9BB25B490B4073
:101F300099B24423D1527B681B6844229B5A9BB2BE
:101F40001A0080235B011A4080235B019A4224D14E
:101F50007B681A687B681B6840215B5A9BB204212E
:101F60008B4399B24023D152BD231B02FB607B6897
:101F70001B68FA6891B2402299527B68180008F0F9
:101F800079F97B681A687B681B6844215B5A9BB2AD
:101F900043490B4099B24423D1527B681B684422C9
:101FA0009B5A9BB21A0080231B011A4080231B01FD
:101FB0009A4234D17B681A687B681B6844215B5A5B
:101FC0009BB238490B4099B24423D1527B681A68BE
:101FD0007B681B6840215B5A9BB208210B4399B276
:101FE0004023D1527B681A687B681B6840215B5A8A
:101FF0009BB204210B4399B24023D1527B681B68EA
:1020000044229B5A9BB21A0080235B011A40802312
:102010005B019A4203D07B68180008F00FF97B68D7
:102020001B6844229B5A9BB21A0080239B001A40D3
:1020300080239B009A420FD17B681A687B681B68DB
:1020400044215B5A9BB218490B4099B24423D152A8
:102050007B68180008F0B6F87B681B6844229B5A1E
:102060009BB21A0080235B001A4080235B009A42D7
:102070000BD17B681A687B681B6844215B5A9BB252
:102080000A490B4099B24423D152C046BD4604B020
:1020900080BDC046FFFBFFFFFFBFFFFFFFDFFFFF6D
:1020A000FFEFFFFFFFF7FFFFFFFDFFFFFFFEFFFF5B
:1020B00080B582B000AF78600A00FB1C1A707A68A5
:1020C000F4235B00D35C012B01D1022319E07A6871
:1020D000F4235B000121D154FB1C1B78002B05D19C
:1020E0007B681B684C228021995204E07B68FA1CB3
:1020F000242112785A547A68F4235B000021D154C9
:1021000000231800BD4602B080BD000090B587B026
:1021100000AF78600C0010001900FB1C221C1A7024
:102120003B00021C1A80BB1C0A1C1A701123FB18EE
:1021300000221A70FB1C1B785BB2002B0CDAFB1C14
:102140001B787F221A401300DB009B1A9B00283368
:102150007A68D3187B610CE0FB1C1B787F221A4045
:102160001300DB009B1A9B000933FF337A68D318F6
:102170007B61FB1C1B787F221340DAB27B691A70EB
:10218000FB1C1B785BB2DBB2DB09DBB21A007B699C
:102190005A703B001A887B69DA607B69BA1C127836
:1021A000DA707A68F4235B00D35C012B01D102233F
:1021B0000FE37A68F4235B000121D1547B69DB785B
:1021C000012B4CD002DC002B05D060E0022B1AD092
:1021D000032B2CD05BE07B681B681A007B691B78A3
:1021E0009B00D2187B681B6819007B691B789B00D9
:1021F000CB181B88B6490B409BB2802189000B434A
:102200009BB2138043E07B681B681A007B691B78D4
:102210009B00D2187B681B6819007B691B789B00A8
:10222000CB181B88AA490B409BB213802FE07B6818
:102230001B681A007B691B789B00D2187B681B689F
:1022400019007B691B789B00CB181B88A0490B40A9
:102250009BB2C021C9000B439BB2138017E07B687F
:102260001B681A007B691B789B00D2187B681B686F
:1022700019007B691B789B00CB181B8894490B4085
:102280009BB28021C9000B439BB21380C0467B6880
:102290001B681A007B691B789B00D2187B681B683F
:1022A00019007B691B789B00CB181B8889490B4060
:1022B00099B27B691B789BB20B439BB286490B4357
:1022C0009BB213807B699B7A002B00D014E17B6961
:1022D0005B78002B55D07B681B6850229B5A9BB2C1
:1022E0001A007B691B78DB00D3181A007B681B6817
:1022F000D3188022D200944663441A007B699B88DD
:102300005B089BB2DB189BB213807B681B681A00CA
:102310007B691B789B00D3181B881A00402313404D
:1023200015D07B681B681A007B691B789B00D2184C
:102330007B681B6819007B691B789B00CB181B8886
:1023400064490B409BB265490B439BB213807B6889
:102350001B681A007B691B789B00D3181B88604A96
:1023600013409CB2202363409CB27B681B681A0018
:102370007B691B789B00D318574A224392B21A807C
:102380001FE27B681B6850229B5A9BB21A007B6934
:102390001B78DB00D3181A007B681B68D318514ADE
:1023A000944663441A007B699B885B089BB2DB18E8
:1023B0009BB213807B681B6850229B5A9BB21A0009
:1023C0007B691B78DB00D3181A007B681B68D31865
:1023D000454A94466344FB607B69DB683E2B1CD90D
:1023E0007B69DB685A091223FB181A807B69DB685A
:1023F0001F22134006D11223FB181A881223FB1840
:10240000013A1A801223FB181B889B029BB2374AA1
:1024100013439AB2FB681A8018E07B69DB685A089C
:102420001223FB181A807B69DB680122134006D057
:102430001223FB181A881223FB1801321A80122368
:10244000FB181B889B029AB2FB681A807B681B688A
:102450001A007B691B789B00D3181B881A00802305
:10246000DB01134015D07B681B681A007B691B7861
:102470009B00D2187B681B6819007B691B789B0046
:10248000CB181B8813490B409BB219490B439BB2D5
:1024900013807B681B681A007B691B789B00D3182C
:1024A0001B88144A13409CB280235B0163409CB29A
:1024B00080239B0163409CB27B681B681A007B6988
:1024C0001B789B00D318044A224392B21A8078E109
:1024D0008F89FFFF0F0F00008080FFFFC080FFFF8C
:1024E000BF8FFFFF04040000060400000080FFFF10
:1024F00080C0FFFF8FBFFFFF7B681B681A007B69EE
:102500001B789B00D2187B681B6819007B691B78BD
:102510009B00CB181B88B1490B409BB2B0490B43C1
:102520009BB213807B681B6850229B5A9BB21A0097
:102530007B691B78DB00D3181A007B681B68D318F3
:102540008022D200944663441A007B69DB885B08D2
:102550009BB2DB189BB213807B681B6850229B5A8E
:102560009BB21A007B691B78DB00D3181A007B68CA
:102570001B68D3189B4A944663441A007B691B89E5
:102580005B089BB2DB189BB213807B695B78002BE6
:1025900000D08FE07B681B681A007B691B789B006A
:1025A000D3181B881A008023DB01134015D07B68E9
:1025B0001B681A007B691B789B00D2187B681B681C
:1025C00019007B691B789B00CB181B8886490B4040
:1025D0009BB286490B439BB213807B681B681A0031
:1025E0007B691B789B00D3181B881A00402313407B
:1025F00015D07B681B681A007B691B789B00D2187A
:102600007B681B6819007B691B789B00CB181B88B3
:1026100075490B409BB276490B439BB213807B6894
:102620001B681A007B691B789B00D2187B681B68AB
:1026300019007B691B789B00CB181B886A490B40EB
:102640009BB26B490B439BB213807B681B681A00DB
:102650007B691B789B00D3181B88664A13409CB289
:1026600080235B0163409CB280239B0163409CB24A
:102670007B681B681A007B691B789B00D3185E4A35
:10268000224392B21A807B681B681A007B691B7810
:102690009B00D3181B88594A13409CB27B681B6867
:1026A0001A007B691B789B00D318534A224392B2CD
:1026B0001A8086E07B681B681A007B691B789B0088
:1026C000D3181B881A008023DB01134015D07B68C8
:1026D0001B681A007B691B789B00D2187B681B68FB
:1026E00019007B691B789B00CB181B883E490B4067
:1026F0009BB23E490B439BB213807B681B681A0058
:102700007B691B789B00D3181B881A004023134059
:1027100015D07B681B681A007B691B789B00D21858
:102720007B681B6819007B691B789B00CB181B8892
:102730002D490B409BB22E490B439BB213807B6803
:102740001B681A007B691B789B00D2187B681B688A
:1027500019007B691B789B00CB181B8822490B4012
:102760009BB222490B439BB213807B681B681A0003
:102770007B691B789B00D3181B88204A13409CB2AE
:102780007B681B681A007B691B789B00D3181A4A68
:10279000224392B21A807B681B681A007B691B78FF
:1027A0009B00D3181B88134A13409CB27B681B689C
:1027B0001A007B691B789B00D3180F4A224392B200
:1027C0001A807A68F4235B000021D1541123FB188E
:1027D0001B781800BD4607B090BDC0460F0E000024
:1027E0008081FFFF040400000F0F000080C0FFFF86
:1027F000C080FFFF8FBFFFFF8080FFFFBF8FFFFF05
:1028000090B585B000AF78600A00FB1C1A70FB1C05
:102810001B785BB2002B0CDAFB1C1B787F221A4062
:102820001300DB009B1A9B0028337A68D318FB60E7
:102830000CE0FB1C1B787F221A401300DB009B1A64
:102840009B000933FF337A68D318FB60FB1C1B78AD
:102850007F221340DAB2FB681A70FB1C1B785BB254
:10286000DBB2DB09DBB21A00FB685A707A68F4232A
:102870005B00D35C012B01D102239AE17A68F42337
:102880005B000121D154FB689B7A002B00D076E0DD
:10289000FB685B78002B38D07B681B681A00FB68EC
:1028A0001B789B00D3181B881A004023134015D0B7
:1028B0007B681B681A00FB681B789B00D2187B683A
:1028C0001B681900FB681B789B00CB181B88BB4951
:1028D0000B409BB2BA490B439BB213807B681B68C9
:1028E0001A00FB681B789B00D3181B88B54A13405D
:1028F0009CB27B681B681A00FB681B789B00D3188E
:10290000B14A224392B21A804DE17B681B681A00DB
:10291000FB681B789B00D3181B881A008023DB01FF
:10292000134015D07B681B681A00FB681B789B005E
:10293000D2187B681B681900FB681B789B00CB18BA
:102940001B889E490B409BB2A0490B439BB213804E
:102950007B681B681A00FB681B789B00D3181B88D8
:102960009B4A13409CB27B681B681A00FB681B786B
:102970009B00D318944A224392B21A8013E1FB6859
:102980005B78002B00D087E07B681B681A00FB682F
:102990001B789B00D3181B881A008023DB0113408F
:1029A00015D07B681B681A00FB681B789B00D21847
:1029B0007B681B681900FB681B789B00CB181B8881
:1029C0007E490B409BB281490B439BB213807B68CD
:1029D0001B681A00FB681B789B00D3181B881A0021
:1029E0004023134015D07B681B681A00FB681B78D6
:1029F0009B00D2187B681B681900FB681B789B0042
:102A0000CB181B886D490B409BB26D490B439BB2A1
:102A100013807B681B681A00FB681B789B00D21828
:102A20007B681B681900FB681B789B00CB181B8810
:102A300062490B409BB262490B439BB213807B6897
:102A40001B681A00FB681B789B00D3181B88604A20
:102A500013409CB27B681B681A00FB681B789B00C4
:102A6000D318594A224392B21A807B681B681A0015
:102A7000FB681B789B00D3181B88524A13409CB2FA
:102A80007B681B681A00FB681B789B00D3184E4AB2
:102A9000224392B21A8086E07B681B681A00FB68AA
:102AA0001B789B00D3181B881A008023DB0113407E
:102AB00015D07B681B681A00FB681B789B00D21836
:102AC0007B681B681900FB681B789B00CB181B8870
:102AD0003A490B409BB23D490B439BB213807B6844
:102AE0001B681A00FB681B789B00D3181B881A0010
:102AF0004023134015D07B681B681A00FB681B78C5
:102B00009B00D2187B681B681900FB681B789B0030
:102B1000CB181B8829490B409BB229490B439BB218
:102B200013807B681B681A00FB681B789B00D21817
:102B30007B681B681900FB681B789B00CB181B88FF
:102B40001E490B409BB221490B439BB213807B680B
:102B50001B681A00FB681B789B00D3181B88194A56
:102B600013409CB27B681B681A00FB681B789B00B3
:102B7000D318154A224392B21A807B681B681A0048
:102B8000FB681B789B00D3181B88114A13409CB22A
:102B90007B681B681A00FB681B789B00D3180A4AE5
:102BA000224392B21A807A68F4235B000021D15448
:102BB00000231800BD4605B090BDC0460F0F0000B1
:102BC000C080FFFFBF8FFFFF8080FFFF80C0FFFF3F
:102BD0008FBFFFFF90B58BB000AFF8607A603B60AD
:102BE0000B23FB180A1C1A700B23FB181B787F227F
:102BF0001A401300DB009B1A9B000933FF33FA686D
:102C0000D318FB61FB697A681A61FB693A685A61FB
:102C1000FB6900229A61FB6900225A700B23FB18A2
:102C20001B787F221340DAB2FB691A70FB695A697C
:102C3000FB69DB689A4209D9FB69DB683B60FB6989
:102C40005A693B68D21AFB695A6105E0FB695B6906
:102C50003B60FB6900225A61FB699B7A002B47D1DC
:102C6000FB681B6850229B5A9BB21A00FB691B78B9
:102C7000DB00D3181A00FB681B68D318924A9446ED
:102C80006344BB613B683E2B1AD93B685A09262333
:102C9000FB181A803B681F22134006D12623FB181D
:102CA0001A882623FB18013A1A802623FB181B8852
:102CB0009B029BB2854A13439AB2BB691A80DFE03C
:102CC0003B685A082623FB181A803B6801221340F0
:102CD00006D02623FB181A882623FB1801321A80F7
:102CE0002623FB181B889B029AB2BB691A80C7E097
:102CF000FB695B78002B47D1FB681B6850229B5A0D
:102D00009BB21A00FB691B78DB00D3181A00FB6822
:102D10001B68D3186E4A944663447B613B683E2B24
:102D20001AD93B685A092423FB181A803B681F22D2
:102D3000134006D12423FB181A882423FB18013AD8
:102D40001A802423FB181B889B029BB25F4A134303
:102D50009AB27B691A802FE03B685A082423FB183B
:102D60001A803B680122134006D02423FB181A88DE
:102D70002423FB1801321A802423FB181B889B0292
:102D80009AB27B691A8017E0FB695B78012B13D13B
:102D9000FB681B6850229B5A9BB21A00FB691B7888
:102DA000DB00D3181A00FB681B68D318484A944606
:102DB00063443A6892B21A80FB695B78002B47D172
:102DC000FB681B6850229B5A9BB21A00FB691B7858
:102DD000DB00D3181A00FB681B68D3183A4A9446E4
:102DE00063443B613B683E2B1AD93B685A09222356
:102DF000FB181A803B681F22134006D12223FB18C0
:102E00001A882223FB18013A1A802223FB181B88F8
:102E10009B029BB22D4A13439AB23B691A802FE062
:102E20003B685A082223FB181A803B680122134092
:102E300006D02223FB181A882223FB1801321A809D
:102E40002223FB181B889B029AB23B691A8017E069
:102E5000FB695B78012B13D1FB681B6850229B5ADE
:102E60009BB21A00FB691B78DB00D3181A00FB68C1
:102E70001B68D318144A944663443A6892B21A8085
:102E8000FB681B681A00FB691B789B00D3181B8822
:102E9000104A13409CB280235B0163409CB28023A4
:102EA0009B0163409CB2FB681B681A00FB691B789E
:102EB0009B00D318084A224392B21A8000231800BC
:102EC000BD460BB090BDC046060400000080FFFF69
:102ED000020400008FBFFFFF8080FFFF80B582B03B
:102EE00000AF78600A00FB1C1A70FB1C1B787F2265
:102EF0001A407868902359001300DB009B1A9B004E
:102F0000C3185B181B689BB21800BD4602B080BD99
:102F100090B58BB000AFF8607A603B600B23FB1874
:102F20000A1C1A702623FB1800221A800B23FB1898
:102F30001B787F221A401300DB009B1A9B0028336A
:102F4000FA68D318FB61FB697A681A61FB693A6811
:102F50005A61FB6900229A61FB6901225A700B23B6
:102F6000FB181B787F221340DAB2FB691A70FB69E9
:102F70005A69FB69DB689A4209D9FB69DB683B60E7
:102F8000FB695A693B68D21AFB695A6105E0FB6923
:102F90005B693B60FB6900225A61FB699B7A002BED
:102FA0001ED1FB681868FB691969FB699A883B6840
:102FB0009BB200F0F7FAFB681B6850229B5A9BB249
:102FC0001A00FB691B78DB00D3181A00FB681B682A
:102FD000D318A44A944663443A6892B21A801FE117
:102FE000FB681B681A00FB691B789B00D3181B88C1
:102FF0001A004023134069D0FB695B78002B47D14E
:10300000FB681B6850229B5A9BB21A00FB691B7815
:10301000DB00D3181A00FB681B68D318924A944649
:103020006344BB613B683E2B1AD93B685A09242391
:10303000FB181A803B681F22134006D12423FB187B
:103040001A882423FB18013A1A802423FB181B88B2
:103050009B029BB2854A13439AB2BB691A802FE048
:103060003B685A082423FB181A803B68012213404E
:1030700006D02423FB181A882423FB1801321A8057
:103080002423FB181B889B029AB2BB691A8017E0A5
:10309000FB695B78012B13D1FB681B6850229B5A9C
:1030A0009BB21A00FB691B78DB00D3181A00FB687F
:1030B0001B68D3186C4A944663443A6892B21A80EB
:1030C0002623FB18FA6912891A8068E0FB695B788D
:1030D000002B47D1FB681B6850229B5A9BB21A00F9
:1030E000FB691B78DB00D3181A00FB681B68D31838
:1030F0005C4A944663447B613B683E2B1AD93B682B
:103100005A092223FB181A803B681F22134006D15C
:103110002223FB181A882223FB18013A1A80222343
:10312000FB181B889B029BB2504A13439AB27B69DF
:103130001A802FE03B685A082223FB181A803B684C
:103140000122134006D02223FB181A882223FB18E1
:1031500001321A802223FB181B889B029AB27B69DA
:103160001A8017E0FB695B78012B13D1FB681B68A1
:1031700050229B5A9BB21A00FB691B78DB00D318C4
:103180001A00FB681B68D318364A944663443A68B1
:1031900092B21A802623FB18FA69D2881A80FB683B
:1031A0001868FB6919693B689CB22623FB181A88CA
:1031B000230000F0F7F9FB695B78002B16D1FB6860
:1031C0001B681A00FB691B789B00D218FB681B6800
:1031D0001900FB691B789B00CB181B8824490B4006
:1031E0009BB224490B439BB2138019E0FB695B78C7
:1031F000012B15D1FB681B681A00FB691B789B002B
:10320000D218FB681B681900FB691B789B00CB1860
:103210001B8817490B409BB217490B439BB2138085
:10322000FB681B681A00FB691B789B00D3181B887E
:10323000124A13409CB2102363409CB22023634087
:103240009CB2FB681B681A00FB691B789B00D318B3
:103250000B4A224392B21A8000231800BD460BB0DD
:1032600090BDC04602040000060400000080FFFF7D
:103270000F0F0000C080FFFF80C0FFFFBF8FFFFF68
:103280008080FFFF90B585B000AF78600A00FB1C1E
:103290001A707A68F4235B00D35C012B01D10223FE
:1032A00096E07A68F4235B000121D154FB1C1B7863
:1032B0005BB2002B0CDAFB1C1B787F221A40130038
:1032C000DB009B1A9B0028337A68D318FB600AE066
:1032D000FB1C1A781300DB009B1A9B000933FF3399
:1032E0007A68D318FB60FB6801229A70FB1C1B787C
:1032F0007F221340DAB2FB681A70FB1C1B785BB2AA
:10330000DBB2DB09DBB21A00FB685A70FB681B7882
:10331000002B1FD17B681B681A00FB681B789B0081
:10332000D3181B881A002C4B1A40140080235B0111
:1033300063401C00102363401C007B681B681A005C
:10334000FB681B789B00D318A2B224490A4392B2AF
:103350001A8037E0FB685B78002B19D07B681B680C
:103360001A00FB681B789B00D3181B881C4A13406B
:103370009CB2102363409CB27B681B681A00FB68F8
:103380001B789B00D318154A224392B21A8019E089
:103390007B681B681A00FB681B789B00D3181B888E
:1033A000104A13409CB280235B0163409CB27B684F
:1033B0001B681A00FB681B789B00D318074A22433E
:1033C00092B21A807A68F4235B000021D154002362
:1033D0001800BD4605B090BDBFBF00008080FFFF54
:1033E000BF8FFFFF8FBFFFFF90B585B000AF786044
:1033F0000A00FB1C1A70FB1C1B785BB2002B0CDA5A
:10340000FB1C1B787F221A401300DB009B1A9B00D9
:1034100028337A68D318FB600AE0FB1C1A78130083
:10342000DB009B1A9B000933FF337A68D318FB60DB
:10343000FB6800229A70FB1C1B787F221340DAB2D3
:10344000FB681A70FB1C1B785BB2DBB2DB09DBB2DA
:103450001A00FB685A707A68F4235B00D35C012B76
:1034600001D102238EE07A68F4235B000121D1545C
:10347000FB685B78002B3ED07B681B681A00FB68FA
:103480001B789B00D3181B881A004023134015D0CB
:103490007B681B681A00FB681B789B00D2187B684E
:1034A0001B681900FB681B789B00CB181B883749E9
:1034B0000B409BB236490B439BB213807B681B6861
:1034C0001A00FB681B789B00D3181B88314A1340F5
:1034D0009CB2102363409CB2202363409CB27B6863
:1034E0001B681A00FB681B789B00D3182A4A2243EA
:1034F00092B21A8040E07B681B681A00FB681B7858
:103500009B00D3181B881A008023DB01134015D0C1
:103510007B681B681A00FB681B789B00D2187B68CD
:103520001B681900FB681B789B00CB181B88174988
:103530000B409BB219490B439BB213807B681B68FD
:103540001A00FB681B789B00D3181B88144A134091
:103550009CB280235B0163409CB280239B0163404B
:103560009CB27B681B681A00FB681B789B00D31811
:10357000094A224392B21A807A68F4235B00002140
:10358000D15400231800BD4605B090BD0F0F0000B8
:10359000C080FFFFBF8FFFFF8080FFFF80C0FFFF65
:1035A0008FBFFFFF80B588B000AFF860B960190029
:1035B000BB1D1A803B1D0A1C1A803B1D1B88013352
:1035C0005B087B61BB1D1A88FB68D3188022D20080
:1035D00094466344BB617B69FB6120E0BB681A7859
:1035E0001223FB181A80BB680133BB60BB681B78D1
:1035F0009BB21B0299B21023FB181222BA18128830
:103600000A431A80BB699A1CBA611022BA18128840
:103610001A80BB680133BB60FB69013BFB61FB693E
:10362000002BDBD1C046BD4608B080BD80B588B058
:1036300000AFF860B9601900BB1D1A803B1D0A1C61
:103640001A803B1D1B885B089BB27B61BB1D1A88DF
:10365000FB68D3188022D20094466344BB617B6927
:10366000FB6114E0BB699A1CBA611B883B61BB68B3
:103670005A1CBA603A69D2B21A70BB685A1CBA6056
:103680003A69120AD2B21A70FB69013BFB61FB690D
:10369000002BE7D13B1D1B88012213409BB2002B5E
:1036A0000AD0BB699A1CBA611B883B61BB685A1C73
:1036B000BA603A69D2B21A70C046BD4608B080BD41
:1036C00090B589B000AF78601E23FB1800221A80E5
:1036D0000C23FB1800221A804BE30E23FB181B88D7
:1036E0009BB2DAB21B23FB180F210A401A701B236E
:1036F000FB181B78002B00D039E10E23FB181B8828
:103700009BB21A00102313404CD17B681B68190030
:103710007B681B681B88C74A13409BB20B807B6881
:1037200028337B617B681B6850229B5A9BB21A002E
:103730007B691B78DB00D3181A007B681B68D318E1
:10374000BD4A944663441B889B059A0D7B699A6128
:103750007B691A697B699B69D2187B691A617B68EE
:103760000021180006F010FD7B6824229B5CDBB270
:10377000002B00D1FDE27B695B69002B00D0F8E2F1
:103780007B681B687A682421525CD2B2802149424E
:103790000A43D2B291B24C2299527B682422002172
:1037A0009954E6E27B680933FF337B617B681B68D1
:1037B0001A880C23FB181A800C23FB181B889BB259
:1037C0001A0080231B01134031D07B681B685022F4
:1037D0009B5A9BB21A007B691B78DB00D3181A0036
:1037E0007B681B68D318954A944663441B889B05E5
:1037F0009A0D7B699A617B6818687B68ED33FF33AB
:1038000019007B699A887B699B699BB2FFF70EFF61
:103810007B681B6819007B681B681B88884A1340FB
:103820009BB20B807B68180006F07AFCA1E20C23A7
:10383000FB181B889BB21BB2002B00DB99E27B6854
:103840001B6819007B681B681B887D4A13409BB26C
:103850000B807B681B6850229B5A9BB21A007B69C5
:103860001B78DB00D3181A007B681B68D318734AD7
:10387000944663441B889B059A0D7B699A617B691A
:103880009B69002B11D07B6818687B6919697B697B
:103890009A887B699B699BB2FFF7C8FE7B691A69AE
:1038A0007B699B69D2187B691A617B6800211800CB
:1038B00006F049FC7B681B6850229B5A9BB21A0099
:1038C0007B681B68D3185D4A944663443B617B69FF
:1038D000DB683E2B1CD97B69DB685A091C23FB186B
:1038E0001A807B69DB681F22134006D11C23FB185A
:1038F0001A881C23FB18013A1A801C23FB181B880A
:103900009B029BB24F4A13439AB23B691A8018E05C
:103910007B69DB685A081C23FB181A807B69DB680B
:103920000122134006D01C23FB181A881C23FB1805
:1039300001321A801C23FB181B889B029AB23B6938
:103940001A807B681B681B883F4A13409CB2802307
:103950005B0163409CB280239B0163409CB27B6807
:103960001B681A00394B23439BB2138001E27B682A
:103970001B681A001B23FB181B789B00D3181A889E
:103980000C23FB181A800C23FB181B889BB21BB25C
:10399000002B00DBFAE07B681B681A001B23FB1876
:1039A0001B789B00D2187B681B6819001B23FB182F
:1039B0001B789B00CB181B8821490B409BB21380BE
:1039C0001B23FB181A781300DB009B1A9B0009339A
:1039D000FF337A68D3187B617B699B7A002B37D1E0
:1039E0007B681B6850229B5A9BB21A007B691B782C
:1039F000DB00D3181A007B681B68D3180F4A944663
:103A000063441A881E23FB189205920D1A801E2308
:103A1000FB181B88002B00D18CE07B6818687B6941
:103A200019697B699A881E23FB181B88FFF7FEFD26
:103A300080E0C0460F8FFFFF020400000604000074
:103A40008F0F00000080FFFF8FBFFFFF8080FFFF10
:103A50007B681B681A007B691B789B00D3181B8846
:103A60001A008023DB01134027D07B681B6850229B
:103A70009B5A9BB21A007B691B78DB00D3181A0093
:103A80007B681B68D318C44A944663441A881E2373
:103A9000FB189205920D1A801E23FB181B88002B21
:103AA00032D07B6818687B6919697B69DA881E23C4
:103AB000FB181B88FFF7BAFD26E07B681B685022C5
:103AC0009B5A9BB21A007B691B78DB00D3181A0043
:103AD0007B681B68D318B14A944663441A881E2336
:103AE000FB189205920D1A801E23FB181B88002BD1
:103AF0000AD07B6818687B6919697B691A891E235B
:103B0000FB181B88FFF792FD7B681B681A007B6916
:103B10001B789B00D2187B681B6819007B691B7897
:103B20009B00CB181B889E490B409BB29D490B43C1
:103B30009BB213807B699A691E23FB181B88D218DD
:103B40007B699A617B691A691E23FB181B88D2184E
:103B50007B691A617B695B69002B06D01E23FB1809
:103B60001A887B69DB689A4207D27B691A787B687E
:103B70001100180006F0E7FA08E07B6919787B6904
:103B80001A697B695B697868FFF724F80C23FB18D6
:103B90001B889BB21A008023134000D1E9E01B234D
:103BA000FB181A781300DB009B1A9B0028337A68F5
:103BB000D3187B617B681B681A001B23FB181B78DA
:103BC0009B00D2187B681B6819001B23FB181B780D
:103BD0009B00CB181B8874490B409BB213807B69F8
:103BE0009B7A002B26D17B681B6850229B5A9BB284
:103BF0001A007B691B78DB00D3181A007B681B68EE
:103C0000D318654A944663441B889B059A0D7B69CB
:103C10009A617B699B69002B00D178E07B6818680A
:103C20007B6919697B699A887B699B699BB2FFF7FD
:103C3000B9FC6CE07B681B681A007B691B789B00F1
:103C4000D3181B881A004023134025D07B681B68BB
:103C500050229B5A9BB21A007B691B78DB00D31859
:103C60001A007B681B68D3184B4A944663441B8830
:103C70009B059A0D7B699A617B699B69002B30D00B
:103C80007B6818687B6919697B69DA887B699B693D
:103C90009BB2FFF787FC24E07B681B6850229B5A8D
:103CA0009BB21A007B691B78DB00D3181A007B6873
:103CB0001B68D318394A944663441B889B059A0DA8
:103CC0007B699A617B699B69002B0AD07B681868C5
:103CD0007B6919697B691A897B699B699BB2FFF7CC
:103CE00061FC7B681B681A007B691B789B00D218FB
:103CF0007B681B6819007B691B789B00CB181B88AD
:103D000027490B409BB229490B439BB213807B6828
:103D10001B6850229B5A9BB21A007B691B78DB0000
:103D2000D3181A007B681B68D3181B4A9446634457
:103D30001B889B059A0D7B699A617B691A697B696F
:103D40009B69D2187B691A617B695B69002B07D17B
:103D50007B691A787B681100180006F015FA08E0F4
:103D60007B6919787B691A697B695B697868FFF7F9
:103D7000CFF87B681B6844229B5A9AB20E23FB182B
:103D8000111C198013B2002B00DAA6E400231800DE
:103D9000BD4609B090BDC046020400000604000004
:103DA0000F0F0000C080FFFF0F8FFFFF80C0FFFFDD
:103DB00080B586B000AFF860080011007B600A2370
:103DC000FB18021C1A800823FB180A1C1A800A23FD
:103DD000FB181B88802213409BB2002B0DD00A23B6
:103DE000FB181B887F221A401300DB009B1A9B00E4
:103DF0002833FA68D3187B610BE00A23FB181A8872
:103E00001300DB009B1A9B000933FF33FA68D318B9
:103E10007B610823FB181B88002B07D17B690022DC
:103E20009A727B689AB27B699A800BE07B69012267
:103E30009A727B689AB27B69DA807B681B0C9AB2B3
:103E40007B691A8100231800BD4606B080BD0000C2
:103E500080B586B000AF786000233B617B681B684B
:103E60000122134000D18DE0C54B5B680C2213404A
:103E7000042B0ED0C24B5B680C221340082B16D1CA
:103E8000BF4B5A68C0235B021A4080235B029A42F0
:103E90000DD1BB4B1A6880239B02134000D170E008
:103EA0007B685B68002B00D06BE0012327E37B6815
:103EB0005B68012B07D1B24BB14A126880214902DD
:103EC0000A431A602FE07B685B68002B0CD1AC4B77
:103ED000AB4A1268AB490A401A60A94BA84A12685B
:103EE000A9490A401A601EE07B685B68052B0ED169
:103EF000A34BA34A12688021C9020A431A60A04B4F
:103F00009F4A1268802149020A431A600BE09C4BC9
:103F10009B4A12689B490A401A60994B984A12685A
:103F200099490A401A607B685B68002B14D0FDF742
:103F300025FA03003B6108E0FDF720FA02003B6927
:103F4000D31A642B01D90323D9E28D4B1A6880233D
:103F50009B021340F0D015E0FDF710FA03003B611F
:103F600008E0FDF70BFA02003B69D31A642B01D974
:103F70000323C4E2824B1A6880239B021340F0D1D2
:103F800000E0C0467B681B680222134000D16CE051
:103F90007B4B5B680C2213400ED0794B5B680C2284
:103FA0001340082B1FD1764B5A68C0235B021A407E
:103FB00080231B029A4216D1714B1B6802221340C8
:103FC00005D07B68DB68012B01D0012397E26C4AA6
:103FD0006B4B1B68F8218B4319007B681B69DB0066
:103FE0000B43136041E07B68DB68002B24D0644BFB
:103FF000634A126801210A431A60FDF7BFF9030002
:104000003B6108E0FDF7BAF902003B69D31A022BC5
:1040100001D9032373E25A4B1B6802221340F1D0EB
:10402000574A574B1B68F8218B4319007B681B6963
:10403000DB000B43136018E0514B514A1268012119
:104040008A431A60FDF79AF903003B6108E0FDF727
:1040500095F902003B69D31A022B01D903234EE2E2
:10406000474B1B6802221340F1D17B681B68082272
:10407000134036D07B68DB69002B19D0404B404A97
:10408000526A01210A435A62FDF778F903003B6145
:1040900008E0FDF773F902003B69D31A022B01D93E
:1040A00003232CE2364B5B6A02221340F1D018E066
:1040B000334B334A526A01218A435A62FDF75EF953
:1040C00003003B6108E0FDF759F902003B69D31A90
:1040D000022B01D9032312E2294B5B6A022213400F
:1040E000F1D17B681B680422134000D1B6E017238E
:1040F000FB1800221A70224BDA6980235B051340FB
:1041000011D11F4B1E4AD269802149050A43DA6149
:104110001B4BDA6980235B051340FB60FB681723A8
:10412000FB1801221A70194B1A6880235B00134098
:104130001AD1164B154A1268802149000A431A60A9
:10414000FDF71CF903003B6108E0FDF717F90200D9
:104150003B69D31A642B01D90323D0E10B4B1A68B6
:1041600080235B001340F0D07B689B68012B0FD14C
:10417000034B034A126A01210A431A6236E0C04621
:1041800000100240FFFFFEFFFFFFFBFF007000403A
:104190007B689B68002B0CD1C94BC94A126A01216C
:1041A0008A431A62C64BC64A126A04218A431A62BB
:1041B0001CE07B689B68052B0CD1C14BC04A126A7E
:1041C00004210A431A62BE4BBD4A126A01210A4306
:1041D0001A620BE0BA4BBA4A126A01218A431A6288
:1041E000B74BB74A126A04218A431A627B689B68FC
:1041F000002B14D0FDF7C2F803003B6109E0FDF786
:10420000BDF802003B69D31AAE4A934201D9032399
:1042100075E1AB4B1B6A02221340F0D013E0FDF7AF
:10422000ADF803003B6109E0FDF7A8F802003B6927
:10423000D31AA44A934201D9032360E1A04B1B6A1D
:1042400002221340F0D11723FB181B78012B05D154
:104250009B4B9B4AD2699C490A40DA617B681B6888
:104260001022134063D07B685B69012B2AD1944BE9
:10427000934A526B04210A435A63914B904A526B02
:1042800001210A435A63FDF779F803003B6108E016
:10429000FDF774F802003B69D31A022B01D90323FE
:1042A0002DE1874B5B6B02221340F1D0844A844B93
:1042B0005B6BF8218B4319007B689B69DB000B4328
:1042C000536334E07B685B69053311D17C4B7C4AD6
:1042D000526B04218A435A63794A794B5B6BF8210C
:1042E0008B4319007B689B69DB000B4353631EE023
:1042F000734B734A526B04210A435A63704B704AE2
:10430000526B01218A435A63FDF738F803003B6181
:1043100008E0FDF733F802003B69D31A022B01D9FC
:104320000323ECE0664B5B6B02221340F1D17B6808
:104330001B68202213405CD0614B5B680C22134049
:104340000C2B0ED05E4B5B680C221340082B14D153
:104350005B4B5A68C0235B021A40C0235B029A423F
:104360000BD1574B5A6B80235B02134040D07B68C4
:104370001B6A012B3CD00123C1E07B681B6A002B28
:104380001BD04F4B4E4A526B802149020A435A635D
:10439000FCF7F4FF03003B6108E0FCF7EFFF0200CD
:1043A0003B69D31A022B01D90323A8E0444B5A6B73
:1043B00080235B021340F0D01BE0414B404A526B1C
:1043C00042490A405A63FCF7D9FF03003B6108E009
:1043D000FCF7D4FF02003B69D31A022B01D9032357
:1043E0008DE0374B5A6B80235B021340F0D100E025
:1043F000C0467B685B6A002B00D17FE0304B5B6876
:104400000C221340082B00D176E07B685B6A022BFC
:104410004BD12B4B2A4A12682D490A401A60FCF7EF
:10442000ADFF03003B6108E0FCF7A8FF02003B6919
:10443000D31A022B01D9032361E0214B1A68802390
:104440009B041340F0D11E4A1D4BDB6A0F218B43A6
:1044500019007B681B6B0B43D362194A184B5B68CE
:104460001C4919407B68D86A7B689B6A03430B43ED
:104470005360134B124A1268802149040A431A60A0
:10448000FCF77CFF03003B6108E0FCF777FF0200CC
:104490003B69D31A022B01D9032330E0084B1A6879
:1044A00080239B041340F0D028E0054B044A126897
:1044B00007490A401A60FCF761FF03003B6114E002
:1044C0000010024088130000FFFFFFEFFFFFFEFF18
:1044D000FFFFFFFEFF7FC2FFFCF750FF02003B69BA
:1044E000D31A022B01D9032309E0074B1A68802352
:1044F0009B041340F0D101E0012300E000231800E9
:10450000BD4606B080BDC0460010024080B584B0F4
:1045100000AF786039600023FB607A4B1B68012292
:104520001A403B689A4211D2764B764A12680121B2
:104530008A4311003A680A431A60724B1B680122D1
:104540001A403B689A4201D00123D7E07B681B6880
:104550000222134009D06C4A6B4B5B68F0218B43FD
:1045600019007B689B680B4353607B681B680122C2
:10457000134000D189E07B685B68012B07D1624B57
:104580001A6880239B02134020D10123B6E07B6888
:104590005B68022B07D15C4B1A6880239B04134095
:1045A00014D10123AAE07B685B68032B07D1564B2B
:1045B0005A6B80235B02134008D101239EE0524BCB
:1045C0001B680222134001D1012397E04E4A4E4B53
:1045D0005B6803218B4319007B685B680B43536066
:1045E000FCF7CCFE0300FB607B685B68012B11D1FC
:1045F00009E0FCF7C3FE0200FB68D31A434A93426A
:1046000001D903237AE0404B5B680C221340042B52
:10461000EFD13AE07B685B68022B11D109E0FCF72F
:10462000ADFE0200FB68D31A384A934201D9032336
:1046300064E0354B5B680C221340082BEFD124E07B
:104640007B685B68032B1BD109E0FCF797FE020037
:10465000FB68D31A2D4A934201D903234EE02A4B1B
:104660005B680C2213400C2BEFD10EE0FCF786FEAA
:104670000200FB68D31A254A934201D903233DE087
:10468000214B5B680C221340F0D11E4B1B680122AA
:104690001A403B689A4211D91A4B1A4A12680121F2
:1046A0008A4311003A680A431A60164B1B680122BC
:1046B0001A403B689A4201D001231FE07B681B68C7
:1046C0000422134008D0104A0F4B5B681049194070
:1046D0007B68DB680B43536000F020F801000A4B55
:1046E0005B681B090F2213400A4AD35C0A00DA40B8
:1046F000094B1A60002003F0E7FF00231800BD46B5
:1047000004B080BD00200240001002408813000069
:10471000FFF8FFFF08AF00084C02002090B58FB0F3
:1047200000AF1423FB18374A13CA13C312681A6068
:104730003B1D354A13CA13C312681A600023FB627B
:104740000023BB6200237B6300237B6200233B6367
:104750002E4B5B68FB62FB6A0C221340082B06D0D1
:104760000C2B43D0042B44D1294B3B6344E0FB6A20
:104770009B0C0F2213401422BA18D35C7B62234B8C
:10478000DB6A0F2213403A1DD35CBB62FA6AC02376
:104790005B021A4080235B029A4209D1B96A1C4825
:1047A000FBF7C4FC03001A007B6A53437B631AE0E7
:1047B000FA6AC0235B021A40C0235B029A4209D105
:1047C000B96A1448FBF7B2FC03001A007B6A534332
:1047D0007B6308E0B96A0E48FBF7A8FC03001A00E7
:1047E0007B6A53437B637B6B3B6305E0094B3B6315
:1047F00002E0074B3B63C0463B6B1800BD460FB061
:1048000090BDC0464CAC00085CAC000800100240F3
:1048100000127A00006CDC0280B500AF024B1B680E
:104820001800BD4680BDC0464C02002080B500AFD8
:10483000FFF7F2FF0100064B5B681B0A07221340DB
:10484000044AD35CD9400B001800BD4680BDC04669
:104850000010024018AF000880B582B000AF786049
:1048600039607B6807221A600E4B5B6803221A408E
:104870007B685A600B4B5B68F0221A407B689A6039
:10488000084B5A68E023DB001A407B68DA60064B6D
:104890001B6801221A403B681A60C046BD4602B040
:1048A00080BDC046001002400020024080B586B0A6
:1048B00000AF786000233B610023FB607B681A68CF
:1048C00080235B02134000D18EE01723FB180022E7
:1048D0001A706E4BDA6980235B05134011D16B4B64
:1048E0006A4AD269802149050A43DA61674BDA696D
:1048F00080235B051340BB60BB681723FB180122B4
:104900001A70634B1A6880235B0013401AD1604B06
:104910005F4A1268802149000A431A60FCF72EFDA5
:1049200003003B6108E0FCF729FD02003B69D31A54
:10493000642B01D90323A4E0554B1A6880235B0044
:104940001340F0D0514B1A6AC0239B001340FB6008
:10495000FB68002B34D07B685A68C0239B001A4048
:10496000FB689A422CD0494B1B6A4A4A1340FB60B1
:10497000464B464A126A802149020A431A62434B57
:10498000424A126A44490A401A62404BFA681A6263
:10499000FB680122134013D0FCF7F0FC03003B61DD
:1049A00009E0FCF7EBFC02003B69D31A3B4A934257
:1049B00001D9032365E0354B1B6A02221340F0D076
:1049C000324A324B1B6A334919407B685B680B43A0
:1049D00013621723FB181B78012B05D12B4B2B4A95
:1049E000D2692F490A40DA617B681B6801221340B3
:1049F00009D0264A254B1B6B03218B4319007B688A
:104A00009B680B4313637B681B680222134008D02A
:104A10001E4A1E4B1B6B234919407B68DB680B4306
:104A200013637B681B682022134009D0174A174B79
:104A30001B6B10218B4319007B681B690B431363AD
:104A40007B681A6880239B02134009D00F4A0F4BE2
:104A50001B6B80218B4319007B689B690B4313639D
:104A60007B681A688023DB00134009D0074A074B94
:104A70001B6B40218B4319007B685B690B431363FD
:104A800000231800BD4606B080BDC046001002409D
:104A900000700040FFFCFFFFFFFFFEFF88130000D7
:104AA000FFFFFFEFFFFFFCFF80B582B000AF786033
:104AB0007B68002B01D101231EE07B683D229B5CBB
:104AC000DBB2002B07D17B683C22002199547B6824
:104AD000180000F015F87B683D22022199547B688C
:104AE0001A687B6804331900100000F061F97B68D4
:104AF0003D220121995400231800BD4602B080BD1B
:104B000080B582B000AF7860C046BD4602B080BDBF
:104B100080B582B000AF78607B681B687A681268E5
:104B2000D26801210A43DA607B681B687A681268E0
:104B3000126801210A431A6000231800BD4602B022
:104B400080BD80B582B000AF78607B681B681B6950
:104B500002221340022B24D17B681B68DB680222EF
:104B60001340022B1DD17B681B68032252421A613D
:104B70007B6801221A777B681B689B6903221340BC
:104B800004D07B68180000F0FAF807E07B68180092
:104B900000F0EDF87B68180000F0F9F87B6800225F
:104BA0001A777B681B681B6904221340042B25D1EC
:104BB0007B681B68DB6804221340042B1ED17B68D2
:104BC0001B68052252421A617B6802221A777B68B1
:104BD0001B689A69C0239B00134004D07B681800AF
:104BE00000F0CDF807E07B68180000F0C0F87B68A3
:104BF000180000F0CCF87B6800221A777B681B68ED
:104C00001B6908221340082B24D17B681B68DB68D2
:104C100008221340082B1DD17B681B6809225242D1
:104C20001A617B6804221A777B681B68DB690322A0
:104C3000134004D07B68180000F0A1F807E07B68FF
:104C4000180000F094F87B68180000F0A0F87B686A
:104C500000221A777B681B681B6910221340102BF7
:104C600025D17B681B68DB6810221340102B1ED1F6
:104C70007B681B68112252421A617B6808221A77EE
:104C80007B681B68DA69C0239B00134004D07B68F3
:104C9000180000F074F807E07B68180000F067F86F
:104CA0007B68180000F073F87B6800221A777B6835
:104CB0001B681B6901221340012B0FD17B681B6805
:104CC000DB6801221340012B08D17B681B6802229C
:104CD00052421A617B68180003F060FC7B681B6815
:104CE0001B6980221340802B0FD17B681B68DB6817
:104CF00080221340802B08D17B681B68812252429E
:104D00001A617B68180000F0DDF87B681B681B697E
:104D100040221340402B0FD17B681B68DB68402288
:104D20001340402B08D17B681B68412252421A6114
:104D30007B68180000F033F87B681B681B69202231
:104D40001340202B0FD17B681B68DB6820221340A7
:104D5000202B08D17B681B68212252421A617B6894
:104D6000180000F0A7F8C046BD4602B080BD80B56F
:104D700082B000AF7860C046BD4602B080BD80B54D
:104D800082B000AF7860C046BD4602B080BD80B53D
:104D900082B000AF7860C046BD4602B080BD80B52D
:104DA00082B000AF7860C046BD4602B080BD000052
:104DB00080B584B000AF786039600023FB607B6809
:104DC0001B68FB607B68344A934208D07A68802372
:104DD000DB059A4203D07B68304A934208D1FB68D6
:104DE00070229343FB603B685B68FA681343FB6087
:104DF0007B68294A934218D07A688023DB059A425F
:104E000013D07B68254A93420FD07B68244A934293
:104E10000BD07B68234A934207D07B68224A934297
:104E200003D07B68214A934208D1FB68204A134093
:104E3000FB603B68DB68FA681343FB60FB68802219
:104E400093431A003B685B691343FB607B68FA6815
:104E50001A603B689A687B68DA623B681A687B680C
:104E60009A627B680C4A93420BD07B680D4A93424E
:104E700007D07B680C4A934203D07B680B4A93426D
:104E800003D13B681A697B681A637B6801225A6107
:104E9000C046BD4604B080BD002C01400004004067
:104EA0000020004000400140004401400048014013
:104EB000FFFCFFFF80B582B000AF7860C046BD4602
:104EC00002B080BD80B582B000AF7860C046BD46FC
:104ED00002B080BD80B584B000AF78600A00FB1CD2
:104EE0001A700F23FB1800221A707B681B7C002BA2
:104EF0000ED180239B0078680222812105F083FA7D
:104F000080239B0078680222012105F07CFA0BE0E7
:104F1000786840230222812105F075FA78684023E1
:104F20000222012105F06FFA78680823032282210A
:104F300005F069FA87239B00180005F0DDFC0100ED
:104F40007A6886239B00D1507A6886239B00D358C9
:104F5000002B04D10F23FB1801221A702CE07A6871
:104F600086239B00D358BB607A6887239B00D35865
:104F70001B689847BA6885239B000021D150BA6806
:104F800086239B000021D1507B681B7C002B0AD11B
:104F9000BA6881239B00D25880239B007868012146
:104FA00005F03CFC08E0BA6881239B00D258786881
:104FB0004023012105F032FC0F23FB181B78180059
:104FC000BD4604B080BD80B584B000AF78600A00F3
:104FD000FB1C1A700F23FB1800221A707B688121BA
:104FE000180005F067FA7B680121180005F062FAE5
:104FF0007B688221180005F05DFA7A6886239B00A1
:10500000D358002B11D07A6887239B00D3585B6854
:1050100098477A6886239B00D358180005F078FCDF
:105020007A6886239B000021D1500F23FB181B7840
:105030001800BD4604B080BD80B584B000AF786074
:1050400039607A6886239B00D358FB603B681B78E5
:105050001A00602313403DD0202B00D046E03B686F
:10506000DB88002B2BD03B681B785BB2002B12DA5D
:105070007A6887239B00D3589B683A685078F96810
:105080003A68D2889847F9683B68DA887B681800E4
:1050900001F04FF92BE03B685978FA6880239B00B8
:1050A000D1543B68DB88D9B2FB68134A9954F9683C
:1050B0003B68DA887B68180001F06EF917E07A68BF
:1050C00087239B00D3589B683A6850783968002240
:1050D00098470CE03B685B780A2B06D107497B6850
:1050E0000122180001F025F900E0C046C046002367
:1050F0001800BD4604B080BD01020000640300201A
:1051000080B584B000AF78600A00FB1C1A707A6822
:1051100086239B00D358FB607A6886239B00D35874
:10512000002B06D0FA6885239B000021D150002374
:1051300000E002231800BD4604B080BD80B584B0F5
:1051400000AF78600A00FB1C1A707A6886239B0007
:10515000D358FB60FB1C1A787B681100180005F01F
:10516000B4FB0100FA6883239B00D1507A68862340
:105170009B00D358002B11D07A6887239B00D3580B
:10518000DB68F968812292008858FA6883218900D7
:105190008C46624411009847002300E00223180067
:1051A000BD4604B080BD000090B585B000AF78600A
:1051B0007A6886239B00D358FB607A6887239B001C
:1051C000D358002B1AD0FA6880239B00D35CFF2BA6
:1051D00014D07A6887239B00D3589B68F968802293
:1051E0009200885CFC68FA680749525C92B2210020
:1051F0009847FA6880239B00FF21D15400231800B0
:10520000BD4605B090BDC0460102000080B582B029
:1052100000AF78607B6843221A80024B1800BD46BD
:1052200002B080BDC001002080B582B000AF7860C0
:105230007B6843221A80024B1800BD4602B080BD35
:105240007C01002080B582B000AF78607B6843228B
:105250001A80024B1800BD4602B080BD0402002037
:1052600080B582B000AF78607B680A221A80024B5A
:105270001800BD4602B080BD3801002080B584B062
:1052800000AF786039600F23FB1802221A703B6868
:10529000002B08D07A6887239B003968D1500F23F0
:1052A000FB1800221A700F23FB181B781800BD464C
:1052B00004B080BD80B586B000AFF860B960BB1D9A
:1052C0001A80FA6886239B00D3587B617A6982230F
:1052D0009B00B968D150BB1D19887A6984239B0053
:1052E000D15000231800BD4606B080BD80B584B003
:1052F00000AF786039607A6886239B00D358FB60E2
:10530000FA6881239B003968D15000231800BD46FC
:1053100004B080BD80B584B000AF78607A68862321
:105320009B00D358FB607A6886239B00D358002BE0
:105330001CD0FA6885239B00D358002B14D1FA683F
:1053400085239B000121D150FA6882239B00D1580C
:10535000FA6884239B00D3589BB278680A008121A5
:1053600005F005FA002302E0012300E00223180003
:10537000BD4604B080BD80B584B000AF78607A6867
:1053800086239B00D358FB607A6886239B00D35802
:10539000002B19D07B681B7C002B0AD1FA68812373
:1053A0009B00D25880239B007868012105F036FAD3
:1053B00008E0FA6881239B00D258786840230121D5
:1053C00005F02CFA002300E002231800BD4604B0CB
:1053D00080BD80B584B000AFF860B960FB1D1A7065
:1053E000FB68002B01D1022320E0FA6885239B0093
:1053F000D358002B04D0FA6885239B000021D1509C
:10540000BB68002B04D0FA6884239B00B968D15094
:10541000FA68FE235B000121D154FB68FA1D127863
:105420001A70FB68180004F043FF00231800BD4603
:1054300004B080BD80B584B000AF786039600F23C0
:10544000FB1800221A703B68002B09D07A6885236C
:105450009B003968D1500F23FB1800221A7003E01B
:105460000F23FB1802221A700F23FB181B78180059
:10547000BD4604B080BD80B582B000AF78607B6867
:10548000180004F07BFF00231800BD4602B080BD69
:1054900080B582B000AF786000231800BD4602B02E
:1054A00080BD80B584B000AF78600A00FB1C1A7024
:1054B0000F23FB1802221A707A6885239B00D358A9
:1054C000002B0FD07A6885239B00D3581B68FA1CE9
:1054D00011787A6810009847031E03D10F23FB1838
:1054E00000221A700F23FB181B781800BD4604B069
:1054F00080BD80B582B000AF78600A00FB1C1A70D6
:105500007A6885239B00D3585B68FA1C11787A6807
:105510001000984700231800BD4602B080BD00006F
:1055200080B582B000AF786039607B6882229200DB
:10553000944663443A681100180000F038FE7A6817
:10554000FA235B000121D1507B68224A9B5A190043
:105550007A68FC235B00D1507A6882239B00D35C7D
:105560001A001F231340012B0DD0022B15D0002B46
:105570001DD17B68822292009A187B681100180066
:1055800000F0C0F920E07B68822292009A187B68C4
:105590001100180000F00AFA16E07B6882229200DF
:1055A0009A187B681100180000F03FFA0CE07A6846
:1055B00082239B00D35C7F229343DAB27B68110085
:1055C000180004F0C2FFC04600231800BD4602B018
:1055D00080BDC0460E02000080B586B000AFF86006
:1055E0007A600B23FB180A1C1A700B23FB181B781C
:1055F000002B3ED1FB680533FF337B61FA68FA2349
:105600005B00D358032B4CD17B699A687B69DB68BC
:105610009A4214D97B699A687B69DB68D21A7B69E4
:105620009A607B69DA687B699B689A4200D91A00A4
:1056300092B27968FB68180000F0D2FE31E0FA6897
:1056400085239B00D3581B69002B0DD0FA68FE23DD
:105650005B00D35C032B07D1FA6885239B00D358EA
:105660001B69FA6810009847FB68180000F0CBFE31
:1056700017E0FA6885239B00D3589B69002B10D054
:10568000FA68FE235B00D35C032B0AD1FA688523FA
:105690009B00D3589B690B22BA181178FA68100046
:1056A000984700231800BD4606B080BD80B586B07F
:1056B00000AFF8607A600B23FB180A1C1A700B23EA
:1056C000FB181B78002B00D077E0FB6814337B615C
:1056D000FA68FA235B00D358022B5ED17B699A6883
:1056E0007B69DB689A4215D97B699A687B69DB68BC
:1056F000D21A7B699A607B699B689AB27968FB6869
:10570000180000F036FEF86800230022002105F0A2
:1057100085F842E07B695A687B69DB6819001000F4
:10572000FAF78AFD0B1E1FD17B695A687B69DB681B
:105730009A4219D37B695A68F968FC235B00CB58FD
:105740009A4211D2FB6800220021180000F011FEDD
:10575000FA68FC235B000021D150F8680023002286
:10576000002105F05BF818E0FA6885239B00D35808
:10577000DB68002B0DD0FA68FE235B00D35C032BA3
:1057800007D1FA6885239B00D358DB68FA681000BC
:105790009847FB68180000F04AFEFA6880239B00D7
:1057A000D35C012B21D1FB681800FFF771FEFA686A
:1057B00080239B000021D15417E0FA6885239B00C9
:1057C000D3585B69002B10D0FA68FE235B00D35CD2
:1057D000032B0AD1FA6885239B00D3585B690B22FF
:1057E000BA181178FA681000984700231800BD46CF
:1057F00006B080BD80B582B000AF78607868402385
:105800000022002104F0FFFD7A6888235B0040211C
:10581000D150786840230022802104F0F4FD7B6899
:1058200040221A627A68FE235B000121D1547A6813
:1058300086239B00D358002B0AD07A6885239B00CF
:10584000D3585A687B685B68D9B27B681800904768
:1058500000231800BD4602B080BD80B582B000AF05
:1058600078600A00FB1C1A707B68FA1C12781A74A4
:1058700000231800BD4602B080BD80B582B000AFE5
:1058800078607A68FE235B00D15C7A68FE23FF3380
:10589000D1547A68FE235B000421D1540023180000
:1058A000BD4602B080BD80B582B000AF78607A6836
:1058B000FE23FF33D15C7A68FE235B00D1540023C2
:1058C0001800BD4602B080BD80B582B000AF7860E0
:1058D0007A68FE235B00D35C032B0ED17A688523A4
:1058E0009B00D358DB69002B07D07A6885239B0087
:1058F000D358DB697A681000984700231800BD462A
:1059000002B080BD80B584B000AF786039600F23ED
:10591000FB1800221A703B685B78092B35D89A0077
:10592000214BD3181B689F463A687B68110018000A
:1059300000F092F930E03A687B681100180000F03E
:1059400095FA29E03A687B681100180000F0DEFA49
:1059500022E03A687B681100180000F073FB1BE03E
:105960003A687B681100180000F0A4FB14E03A6864
:105970007B681100180000F0CCFB0DE03A687B68F2
:105980001100180000F0E4FB06E03A687B681100A3
:10599000180000F047FCC0460F23FB181B781800C6
:1059A000BD4604B080BDC046A8AE000880B584B036
:1059B00000AF786039600F23FB1800221A707A68F4
:1059C000FE235B00D35C032B22D13B689B88DBB2B8
:1059D000012B16D87A6885239B00D3589B683968B9
:1059E0007A68100098473B68DB88002B17D10F239B
:1059F000FB181B78002B12D17B68180000F003FD08
:105A00000DE03A687B681100180000F00BFC06E01E
:105A10003A687B681100180000F004FC00E0C04602
:105A200000231800BD4604B080BD80B584B000AF2F
:105A3000786039600F23FB1800221A703B689A883F
:105A40000E23FB181A703B681B781A006023134062
:105A5000202B0AD17A6885239B00D3589B6839682C
:105A60007A68100098470023F1E03B685B78012BCF
:105A70004ED0032B03D0002B00D190E0E4E07A68F5
:105A8000FE235B00D35C022B02D0032B13D036E045
:105A90000E23FB181B78002B38D00E23FB181B7825
:105AA000802B33D00E23FB181A787B681100180066
:105AB00004F04BFD2AE03B685B88002B11D10E23DC
:105AC000FB181B78002B0CD00E23FB181B78802BA7
:105AD00007D00E23FB181A787B681100180004F019
